:100000000209449081017401F09080037423F09000
:100010008002F043C00475C0CC75C12A75C320D2DC
:08002000AE2232020022C322CD
:03002B000209D0F7
:100033000208ADBB010689828A83F0225002F722AF
:10004300BBFE01F322EF8DF0A4A8F0CF8CF0A4281F
:10005300CE8DF0A42EFE22BC000BBE0029EF8DF046
:1000630084FFADF022E4CCF875F008EF2FFFEE33F8
:10007300FEEC33FCEE9DEC984005FCEE9DFE0FD5A7
:10008300F0E9E4CEFD22EDF8F5F0EE8420D21CFE7B
:10009300ADF075F008EF2FFFED33FD4007985006E4
:1000A300D5F0F222C398FD0FD5F0EA22C2D5EC3089
:1000B300E709B2D5E4C39DFDE49CFCEE30E715B23D
:1000C300D5E4C39FFFE49EFE12005AC3E49DFDE402
:1000D3009CFC800312005A30D507C3E49FFFE49EC3
:1000E300FE22C5F0F8A3E028F0C5F0F8E5821582FA
:1000F30070021583E038F02275F008758200EF2F47
:10010300FFEE33FECD33CDCC33CCC58233C5829BDA
:10011300ED9AEC99E58298400CF582EE9BFEED9A00
:10012300FDEC99FC0FD5F0D6E4CEFBE4CDFAE4CC9C
:10013300F9A88222B800C1B90059BA002DEC8BF09E
:1001430084CFCECDFCE5F0CBF97818EF2FFFEE335B
:10015300FEED33FDEC33FCEB33FB10D70399400486
:10016300EB99FB0FD8E5E4F9FA227818EF2FFFEEAD
:1001730033FEED33FDEC33FCC933C910D7059BE9DE
:100183009A4007EC9BFCE99AF90FD8E0E4C9FAE43A
:10019300CCFB2275F010EF2FFFEE33FEED33FDCCD9
:1001A30033CCC833C810D7079BEC9AE899400AEDC3
:1001B3009BFDEC9AFCE899F80FD5F0DAE4CDFBE46B
:1001C300CCFAE4C8F922A42582F582E5F03583F55B
:1001D3008322E493FB740193FA740293F922D0838C
:1001E300D082F8E4937012740193700DA3A393F873
:1001F300740193F5828883E4737402936860EFA3B8
:10020300A3A380DFEC8EF0A4CCC5F0CCCDF8EFA493
:10021300CEC5F02DFDE43CFCE8A42EC8C5F03DFDA1
:10022300E43CFCEFA4FFE5F028FEE43DFDE43CFCE8
:1002330022E4F51CF5191208961203778F1A120897
:10024300641203778F1BE51B64026008E51B6403DC
:100253006002C202E51B64016004E51B7002051C19
:10026300E51A7051E51B703C120888701B12082EAA
:10027300E06003020317EF4EF6120870743CF012AD
:10028300082E7402F002031712082E7402F01208EB
:1002930070E06003020317E519900D1493F4784D91
:1002A30056F6804F120888606112082EE07065EFE1
:1002B300F45EF68010E51B7007120809E4FD804F19
:1002C300784DE6600A12087C1208147D0280401201
:1002D3000896F583E0FEA3E0FF120864F583E0FCD3
:1002E300A3E0FD7B147A00120C55EF601D12082E5B
:1002F300E07021120809120864F583E0FEA3E0FF11
:1003030012087C1208267D028005120809AD1BAF76
:1003130019120CD90519E519C394085003020239BF
:10032300200125784DE6601E9000B3E07007D201EE
:100333007540028031E51CC3940650051200265017
:100343000D12039580088006E540700BC201784DBD
:10035300E69000B3F0800FE51CC39406500512002D
:100363002650031203959000B3E06004753A01220E
:10037300E4F53A22F583E0FCA3E0FDE519900D14C2
:1003830093784D5624FF92047B147A00AF19120A16
:100393009B22E4784DF6C201120BBB2290007CE055
:1003A300AD3B7C002DFFEC33FEEF25E0FFEE33FE8B
:1003B30074112FF58274003EF583E022FAA3E0FB6B
:1003C300ED2500FFEC33FEEF25E0FFEE33FE747DF9
:1003D3002FF58274003EF583E022900D1393FCFF0A
:1003E300EDC39FFFE49400FEEF780522FFECFDC30D
:1003F30074809DFDE49400FC0200AF75F002900050
:10040300110201C9FFC3EB9FFFEA9E9000CEF0A348
:10041300EFF0EDFF9000CEE48FF00200E5E51D90D4
:10042300007D75F0021201C9E0FEA3E0FF22FFC3C5
:1004330074209FFFE49400FE120048EF780622C365
:10044300EB9FEE6480F8EA64809822ED75F004A4D3
:10045300FF9000CEE5F0F0A3EFF022900D1393FF91
:10046300EDC39F22E500C313FEE50013FFC3E500C0
:100473009F22AC00AD0012005AAD07229000CEE0DF
:10048300FAA3E0FBAE02780222FEA3E0FFAD03ACC9
:1004930002020207FEA3E02BFFEE3AFEC3EF22FEA9
:1004A300A3E0FBAA06E4F9F8229000CEE0FEA3E065
:1004B300780222AC00AD0012005AAD072275140079
:1004C300751500751623E4F517F51875E8E39080A4
:1004D30030E04440F075A081E4F5A375A24B75A10B
:1004E300A5D2AF120A37120003120B480518E518FC
:1004F30070020517D394F4E517940140ECE4F51763
:10050300F5189000B3E070030205A11201E1053F65
:1005130001054602057303054D04057A06055408D3
:1005230005810C055B1005961205881805602005EA
:100533008F30056540056C80000004EC120CEC74F0
:10054300408055120CEC7420804E120CEC74108019
:1005530047120CEC74088040752304808C752302C9
:100563008087120CEC7401802F120CEC74808028AD
:10057300120CEC74608021120CEC7430801A120C93
:10058300EC74188013120CEC740C800C120CEC74C9
:10059300068005120CEC74241200360204EC120CD3
:1005A300ECE41200360204EC908109E054E06004AC
:1005B300E044E0F0E5FB30E00975FB0185E20885E6
:1005C300E109E5FB30E10975FB0285E40A85E30BEC
:1005D300E5FB30E20975FB0485E60C85E50DE5FBDB
:1005E30030E30975FB0885D90E85E70FE5FB30E499
:1005F3000975FB1085DB1085DA11E5FB30E509751C
:10060300FB2085DD1285DC13E4FFEF25E02408F8E9
:10061300E6FC08E6FDE5382F12083CECF0A3EDF00C
:10062300EFFDE5382DFDE433FC784BE66D7001EC0E
:1006330060040FBF06D4E5382406FFE433FE784B8D
:10064300E6FDD3EF9D7480F86E984007D200E4F581
:1006530038800674062538F538120AFA9000B4E09B
:10066300600214F09000D1E0FF9000D0E0FE6F60D4
:1006730006A3EEF075A1A52290007BE07015C200E1
:100683009000B4F0F538120AFA90007B7402F0750A
:1006930037322290007BE0640260030207472000A8
:1006A30003020747C2001537E5376003020747E433
:1006B300784CF6F5191208A2E5199FEE6480F874D8
:1006C3008098507CE4FF12083AE0FCA3E0FDE519B2
:1006D30012085675F002EF1201C9ECF0A3EDF00F0A
:1006E300BF05E374B5251912084CE4F0E519784BFE
:1006F30066604D12083AE0FEA3E0FFE51912087E9A
:1007030012082612083AE0FEA3E0FFE51912081DBD
:10071300E51925E025E024F5F582E4340CF583E4BE
:1007230093FE740193FFE51925E024A2F582E434D6
:10073300001208267D02AF19120CD905190206B85A
:100743007842760122E4F5191208A2E5199FEE64B6
:1007530080F87480984003020808120848E004F007
:10076300120848E0C394054005120848E4F0C2ADFE
:10077300E51912083CE0FEA3E0FF120854C083C051
:1007830082120848E0D082D08375F0021201C9EECC
:10079300F0A3EFF0D2ADE4F51AF51BF51CF51D74CB
:1007A300FFF51EF51FE4FF12085475F002EF120166
:1007B300C9E0FCA3E0FD251BF51BEC351AF51AD3A4
:1007C300ED951DEC951C40048C1C8D1DC3ED951FF0
:1007D300EC951E50048C1E8D1F0FBF05CAC3E51B6D
:1007E300951DFFE51A951CFEC3EF951FFFEE951EA1
:1007F300FE7C007D0312005AE519120866120826D2
:10080300051902074B22E51925E0247DF582E4341E
:1008130000F583E0FEA3E0FFE51925E02401F5825E
:10082300E43400F583EEF0A3EFF02274C62519F546
:1008330082E43400F58322E51925E02490F582E46F
:100843003400F5832274B52519F582E43400F58369
:1008530022E51975F00AA42421F582E43400F58316
:1008630022E51925E0247DF582E434002274BE25B7
:1008730019F582E43400F58322E51925E02411F506
:1008830082E4340022E519900D1493FF784DE6FEBF
:10089300EF5E22E51925E02401F582E43400227895
:1008A3004BE62401FFE433FEC322C0E0C0D075D081
:1008B30000C000C004C005C007E5C630E076AFC580
:1008C300BF600A752100752200C203801FEF648098
:1008D300704F3003028057E521B4FF1585C422E52C
:1008E30022D39413400375220075210043C0048072
:1008F30040E5212522242DF8A6C4052143C004E5A3
:1009030022FDE5212DFDE433FCD3ED9413EC64804B
:100913009480400415218019E521B40314AF2D8080
:1009230010BFA8078523C4D2038006BF880385238D
:10093300C443C601D007D005D004D000D0D0D0E046
:1009430032787FE4F6D8FD75814D02098B0204C02D
:10095300E493A3F8E493A34003F68001F208DFF4E1
:100963008029E493A3F85407240CC8C333C4540F59
:100973004420C8834004F456800146F6DFE4800B2C
:100983000102040810204080900CB0E47E019360C3
:10099300BCA3FF543F30E509541FFEE493A3600159
:1009A3000ECF54C025E060A840B8E493A3FAE493C3
:1009B300A3F8E493A3C8C582C8CAC583CAF0A3C871
:1009C300C582C8CAC583CADFE9DEE780BEC0E0C00E
:1009D300F0C083C082C0D075D000C000C001C00287
:1009E300C003C004C005C006C007E5D530E02343FB
:1009F300D501120BF2E53F453E6008E53F153F7018
:100A030002153E0541E541C394804006754100123D
:100A13000C83E5FB60031205ABD007D006D005D0ED
:100A230004D003D002D001D000D0D0D082D083D064
:100A3300F0D0E032784B7608E4FFFEEE25E025E0C7
:100A430024F3F582E4340CF583740193FDAC070FB2
:100A530074432CF8A6050EBE08E1908030E04440B4
:100A6300F075D580E4F5D6D2AD120C2675F90A756A
:100A7300F8409081037457F0D2ADC200E49000B304
:100A8300F0784DF6F53AC2017842F690007BF0908B
:100A930000D1F09000D0F0228A1D8B1EA907E91225
:100AA30003FEE0FEA3E0C39DFFEE9CAB07FAE990D3
:100AB30000A212042530040B7C007D091200480DAE
:100AC3001200AF12044240037F0022D3EB951EE5D0
:100AD3001D12044640037F0122C3EA6480948040D0
:100AE300037F0222C3E4951EFFE4951DFE12044218
:100AF3007F0440027F0322E4FEEEC394065042EEDD
:100B0300FDE5382DFDE433FC784BE6FBC3ED9B7428
:100B130080F86C98401AAF067D0E120B83EE04FC2E
:100B2300ECC39406501BAF04E4FD120B830C80F05E
:100B3300AF06E5382E2443F8E604FD120B830E803E
:100B4300B843F880227842E6146006047031020646
:100B53007B300019C2009000D1E0049000D0F01265
:100B63000748D202E53A640260031202349000B4EB
:100B7300E0C394054009E4F5F875FB3F120A3722F8
:100B8300EF14601614601914601C14601F146022A3
:100B930024057023ED4440F5FC22ED4440F5FD228D
:100BA300ED4440F5FE22ED4440F5FF22ED4440F5CF
:100BB300F122ED4440F5F222E4F51DE51DC3784B27
:100BC30096502B12042075F002E51D9000011201CE
:100BD300C9EEF0A3EFF0120420E51D1203FEEEF0C0
:100BE300A3EFF07D02AF1D120CD9051D80CD22901D
:100BF3000000E004F0E0C394044027E4F0FF784BE6
:100C0300E6FEEFC39E501574C62F120832E060094A
:100C130074C62F120832E014F00F80E2E540600240
:100C230015402290801D7404F0E4FF784BE6FEEF3C
:100C3300C39E501D74432FF8E675F003A42421F5D9
:100C430082E4340DF5831201D574041200360F804B
:100C5300DA22C3EF9DFFEE9CFED3EF9BEA6480F89C
:100C6300EE6480985017C3E49BFDE49AFCC3EF9DA8
:100C7300EC6480F8EE64809840037F01227F0022B9
:100C83009000B4E004F0E4FF74BE2F120874E06037
:100C93000974BE2F120874E014F00FBF08EA784CF1
:100CA300E66001169000B2E0600214F022014100F8
:100CB3000121000122000A230000000000000000BF
:100CC30000000A2D000102000000000000004100A6
:100CD300000001370000ED900D1C93FE74C62FF544
:100CE30082E43400F583EEF022AB14AA15A9162290
:100CF300000000500001003C000200780003005A8D
:100D03000004003C00050050000B00AA000900503D
:100D13000001020408102040800264501E1E01805E
:100D230019018018018007018006018005018004F4
:100D330001800301800201800101800001801C0108
:050D4300801B01801A75
:00000001FF
