:0300000002151BCB
:0C151B00787FE4F6D8FD7581710215623E
:0A1FF600FFFFFFFFFFFFF25AA5A353
:03169A00011F002D
:0D192D00758E7075E50775E669E4F58E228C
:10001E0012192D121900121800120071120010126E
:10002E0018BD1217B91219471218ED751D03785322
:10003E00E6FE18E6FDEEF541EDF5427855E6FE18C2
:0F004E00E6FDEEF547EDF5487FE87E0312182238
:09005D00858722432201852287D8
:0B006600120086120C00120F0D80F536
:0E169D00C103C102C105C100011E00011A00F7
:1000860020030302013E20970302013E20030302E0
:10009600013E12195FE4FF1216F9C2A0C2062097AC
:1000A6000302013E20030302013E12146EEF6401B7
:1000B600702CC28CC28EB203121953E4F537F53890
:1000C600F539F53AFB7D117F11121357E4FF12162D
:1000D600F912146EEF6401600302065880F320974C
:1000E600BD3003BAE4F51CD20612195F30021C7546
:1000F6003701753801753901753A017B017D0B7F32
:100106000A1213577F881218D78093300507B20555
:10011600751D0A8000E51D75F00A84FFE51D75F062
:100126000A84ADF0E4F537753801753901753A0181
:100136007B011213570200A412146EEF64016003D0
:100146000202BE30086CF53DF53E121953C2083066
:10015600021C753701753801753901753A017B0145
:100166007D0B7F0A1213577F881218D78037300508
:1001760014E4F537753801753901753A017B017D4F
:10018600057F05801DE51D75F00A84FFE51D75F0E8
:100196000A84ADF0E4F537753801753901753A0111
:1001A6007B0112135712146EEF64016003020658A6
:1001B60080F312146EEF64017026200323D28CF5AF
:1001C6003DF53EC20712146EBF01153007F7D20483
:1001D60012195312146EEF6401600302065880F37D
:1001E60012146EEF640160F8051BD28CD28EE4F512
:1001F6003DF53EF51AF51C121953B20320032BC226
:100206008CC28EC204D206E4F537F538F539F53AD4
:10021600FB7D117F11121357E4FF1216F912146EAB
:10022600EF6401600302065880F33097030205A8C5
:1002360020062AAF1D1216F9E51D75F00A84FFE5A2
:100246001D75F00A84ADF0E4F5377538017539018E
:10025600753A017B01121357D2060205A830021D1A
:10026600753701753801753901753A017B017D0BCA
:100276007F0A1213577F881218D70205A830050780
:10028600B205751D0A800EE51BC394064007E4F50A
:100296001AD2018000E51D75F00A84FFE51D75F090
:1002A6000A84ADF0E4F537753801753901753A0100
:1002B6007B011213570205A812146EEF64806003C7
:1002C6000203C32003030203C330086CF53DF53E69
:1002D600121953C20830021C753701753801753979
:1002E60001753A017B017D0B7F0A1213577F881235
:1002F60018D78037300514E4F5377538017539019C
:10030600753A017B017D057F05801DE51D75F00AA7
:1003160084FFE51D75F00A84ADF0E4F53775380104
:10032600753901753A017B0112135712146EEF6489
:1003360080600302065880F3E4F53DF53EB20212F2
:1003460019533002242006057F031216F97537016A
:10035600753801753901753A017B017D0B7F0A12EB
:1003660013577F881218D7804730051CE4F5377578
:100376003801753901753A017B017D057F05121338
:100386005720062C7F0B8025E51D75F00A84FFE5B6
:100396001D75F00A84ADF0E4F5377538017539013D
:1003A600753A017B01121357200605AF1D1216F987
:1003B60012146EEF648060030205A880F312146EB7
:1003C600EF640260030205A82003030205A8309724
:1003D600030205A8300869F53DF53EC20830021C47
:1003E600753701753801753901753A017B017D0B49
:1003F6007F0A1213577F881218D78037300514E406
:10040600F537753801753901753A017B017D057F30
:1004160005801DE51D75F00A84FFE51D75F00A844B
:10042600ADF0E4F537753801753901753A017B0190
:1004360012135712146EEF6402600302065880F31B
:1004460012146EEF6402600B12146EEF6406600302
:100456000205A83002030205A8E4F51AF53DF53EAB
:1004660012146E8F23E5236406703220052FD51DE6
:1004760003751D01E51D75F00A84FFE51D75F00A7B
:1004860084ADF0E4F537753801753901753A017BAD
:10049600011213573006030206580205A3E523642A
:1004A60002707BE51DC3940A4074E4F51A12146EBB
:1004B600EF6402708B300388200285E51DC3940A21
:1004C6005003020446E51A943C40E2121953B20561
:1004D60030051F751D0BE4F5377538017539017543
:1004E6003A017B017D057F05121357200623AF1DB8
:1004F600801C751D0AE4F537753801753901753AA2
:10050600017B01FD7F011213572006057F0A121693
:10051600F912146EEF6402600302065880F3300588
:100526000302044612146EEF640260F812146EEFB2
:100536006406702ED51D03751D01E51D75F00A8430
:10054600FFE51D75F00A84ADF0E4F53775380175E1
:100556003901753A017B011213573006030206581A
:10056600803B121953051DE51DC3940B4003751DF1
:100576000A300503020658E51D75F00A84FFE51DDD
:1005860075F00A84ADF0E4F53775380175390175F3
:100596003A017B01121357300603020658AF1D02BB
:1005A60016F93003062097031206592003030206A4
:1005B60058309703020658C3E5429470E5419417F4
:1005C600402AE542F47003E541F46020E51D75F02C
:1005D6000A84FFE51D75F00A84ADF0E4F537753839
:1005E60002753902753A027B01121357C3E5489426
:1005F600F0E5479455405BE548F47003E547F46041
:100606005112195FE51D75F00A84FFE51D75F00AA4
:1006160084ADF0E4F537753802753902753A027B18
:10062600011213577FF47E0112182212195FE51D7D
:1006360075F00A84FFE51D75F00A84ADF0E4F53720
:10064600F538F539F53A7B011213577FF47E01121E
:02065600182268
:01065800227F
:100C0000300303020F0C12146EEF6480600B121499
:100C10006EEF64246003020F0CD28CE4F53DF53EC8
:100C2000D200C20A12146EEF6480600612146EBF06
:100C3000242030001D300A05121953801512146E3D
:100C4000BF24E1C3E53E941EE53D940040D6D20AA0
:100C500080D2200A0F30000CC28CE4F53DF53EC274
:100C600000C20A2212146EEF648060F812146EBF84
:100C70004003200A0812146EBF01F18012121953AA
:100C800012146EBF0203200A1412146EBF01F1C2C7
:100C90008CE4F53DF53EC200C20AF51E221219533E
:100CA000E4F537F538F539F53AFB7D0D7F0C121375
:100CB000577FE87E031218227FE87E031218227500
:100CC0003701753803753903753A037B017D087F59
:100CD00008121357D2A07FE87E031218227FE87E05
:100CE00003121822E4F537F538F539F53AFB7D1192
:100CF0007F111213577FE87E031218227FE87E03CC
:100D0000121822C2A01219477537017538037539B8
:100D100003753A037B017D07E4FF1213577FE87EDA
:100D2000031218227FE87E03121822E4F537F53803
:100D3000F539F53AFB7D08FF1213571219537FE876
:100D40007E031218227FE87E03121822E4F537F59D
:100D500038F539F53A7B017D09FF12135712195FF7
:100D60007FE87E0312182212195F12146EEF64409E
:100D7000701FF537F538F539F53AFB7D01FF121391
:100D8000577F011216F912195312146EEF64406066
:100D9000F812146EEF6420701FF537F538F539F549
:100DA0003AFB7D02FF1213577F021216F9121953F4
:100DB00012146EEF642060F812146EEF6410701F4E
:100DC000F537F538F539F53AFB7D03FF1213577FF8
:100DD000031216F912195312146EEF641060F81210
:100DE000146EEF6408701FF537F538F539F53AFBE6
:100DF0007D04FF1213577F041216F91219531214AF
:100E00006EEF640860F812146EEF6404701FF5371B
:100E1000F538F539F53AFB7D05FF1213577F0512BA
:100E200016F912195312146EEF640460F812146E5E
:100E3000EF64026003020ED7F537F538F539F53A5D
:100E4000FB7D06FF1213577F061216F91219537F06
:100E5000F47E0112182212146EEF64026003020D78
:100E60006A7FF47E0112182212146EEF640260038E
:100E7000020D6A7FF47E0112182212146EEF6402D2
:100E80006003020D6A7FF47E0112182212146EEFC5
:100E900064026003020D6A7FF47E011218221214AC
:100EA0006EEF64026003020D6A7FF47E0112182265
:100EB00012146EBF0219E4F537F538F539F53AFB2F
:100EC0007D057F051213577F0B1216F91219531265
:100ED000146EEF640260F812146EEF640160030296
:100EE0000D6A200003020D6AF537F538F539F53A39
:100EF000FB7D117F11121357E4FF1216F912146EC5
:0D0F0000EF640160F8C200C20AE4F51E2291
:100F0D002007030210A612146EEF64406003020F57
:100F1D00D5121953E4F537F538F539F53A7B017DDE
:100F2D000F7F0E1213577FF47E01121822E4F5374E
:100F3D00F538F539F53A7B017D117F111213577F85
:100F4D00F47E01121822E4F537F538F539F53A7BC0
:100F5D00017D0F7F0E1213577FF47E01121822E4CC
:100F6D00F537F538F539F53A7B017D117F111213FF
:100F7D00577FF47E01121822E4F537F538F539F56F
:100F8D003A7B017D0F7F0E1213577FF47E011218ED
:100F9D0022E4F537F538F539F53A7B017D117F11EE
:100FAD001213577FF47E01121822121953E4F537EC
:100FBD00F538F539F53AFB7D117F11121357E4F52C
:100FCD0041F542785202109312146EEF64026003E1
:100FDD000210A6121953E4F537F538F539F53AFB39
:100FED007D0F7F101213577FF47E01121822E4F546
:100FFD0037F538F539F53A7B017D117F111213570D
:10100D007FF47E01121822E4F537F538F539F53AFB
:10101D007B017D0F7F101213577FF47E0112182272
:10102D00E4F537F538F539F53A7B017D117F11126D
:10103D0013577FF47E01121822E4F537F538F53990
:10104D00F53A7B017D0F7F101213577FF47E01124D
:10105D001822E4F537F538F539F53A7B017D117F26
:10106D00111213577FF47E01121822121953E4F551
:10107D0037F538F539F53AFB7D117F11121357E429
:10108D00F547F5487854F608F67F207E171217DDE0
:0A109D00C28CE4F53DF53EC20722C7
:10190000E4F5F2F59043FA7FF5F3F5A043FB0F22DF
:10182200E4FDFCE4FAFBC3EB9FEA9E50070BBB000E
:0F183200010A80F20DBD00010CBC02E7BDDAE433
:011841002284
:04179400AB07AA06EF
:10179800E4F52BF52CF582F5837C007D03AF03AED1
:1017A8000212176CC3E5829FE5839E5003A380E96C
:0117B800220E
:1016AB0012083F065B4F666D7D077F6F795C787C18
:0416BB0076715400F0
:0D191F00EFD3940040077E01DEFE1F80F331
:01192C002298
:0516CA005402C313FFF0
:0216CF00AD0765
:1016D100E4FCEDA804088002C313D8FC30E004D276
:1016E100918002C291C2927F0112191FD2927F0191
:0716F10012191F0CBC08DBFD
:0116F80022CF
:1018D700AD07C2937F0312191FAF051216CF7F03FF
:0618E70012191FD293222A
:10135700AA05A907C2937F0312191F7FC01216CFD0
:1013670074082AF8E6540125E0FF740829F8E654C2
:10137700014FFF1216CFE4FF1216CF740829F8E6C3
:101387005402C313FF74082AF8E654024FFF1216DB
:10139700CFE5385401FF1216CF74082AF8E6540433
:1013A700C313FF740829F8E65404FE1313543F4F80
:1013B700FF1216CFE5395401FF1216CF74082AF829
:1013C700E654081313543FFF740829F8E65408FE3F
:1013D700131313541F4FFF1216CFE53A5401FF1290
:1013E70016CF74082AF8E65410131313541FFF740A
:1013F7000829F8E65410FEC4540F4FFFEBC43333EB
:101407003354804FFF1216CFE5381216CA74082AD4
:10141700F8E65420C4540FFF740829F8E65420FE58
:10142700C41354074FFFE537C433333354804FFF9A
:101437001216CFE5391216CA74082AF8E65440C4C2
:10144700135407FF740829F8E65440FEC4131354D5
:10145700034FFF1216CFE53A1216CA7F0312191F60
:07146700D2937F890218D720
:10180000E4F5F2F59043FA0ED292D293D2917F038F
:101810001218D77F0A12191F7F401218D77F0A02A9
:02182000191F8E
:1018BD00C28CC28E758911758C3C758AB0758D3C44
:0A18CD00758BB0D2A9D2ABD2AF22C6
:03000B000210A739
:1010A700C0E0C0F0C083C082C0D075D000C000C00F
:1010B70001C002C003C004C005C006C007C28C75CA
:1010C7008C3C758AB0053EE53E7002053D051A0564
:1010D7001C30064B300348209745E51CC3949640C7
:1010E7003E20013B751C00C2063002047F038005C9
:1010F700300507AF1D1216F98025AF1D1216F9E549
:101107001D75F00A84FFE51D75F00A84ADF075378B
:1011170000753801753901753A017B01121357E5DE
:101127001AC3943C4003751B00E51AC394C84010CA
:1011370030010D751A00C201751B00AF1D1216F99B
:10114700309748300345D3E53E9414E53D9400506D
:1011570014753700753802753902753A027B017DBF
:101167000A7F0A8012753700753801753901753A9B
:10117700017B017D117F11121357C3E53E9428E5CA
:101187003D94004006753D00753E00C3E53E94B0B2
:10119700E53D9404401D30031A200417D208753723
:1011A70000753800753900753A00E4FB7D117F1131
:1011B700121357C3E53E94C8E53D94004010300034
:1011C7000D20030AD20A753D00753E00C28CC3E5A7
:1011D7003E94C8E53D94004005200302D207D28C17
:1011E700D007D006D005D004D003D002D001D0005C
:0B11F700D0D0D082D083D0F0D0E03206
:03001B00021202CC
:10120200C0E0C0F0C083C082C0D075D000C000C0B2
:1012120001C002C003C004C005C006C007758D3CF2
:10122200758BB00540E5407002053F0546E5467006
:10123200020545054AE54A70020549AE49FFE4FC4C
:10124200FD7BDE7A8AF9F8C312177E702CF549F518
:101252004A0542E542700205410548E5487002052B
:1012620047E5427852F6E54108F6E54808F6E547D3
:1012720008F67F207E171217DDAE3FAF40E4FCFD7B
:101282007BAC7A8AF9F8C312177E700E20970B2076
:101292000B08F53FF540D209D2A030091CE54064A5
:1012A200C8453F7002C2A0E540B4080DE53FB4074F
:1012B20008753F00754000D2A0E54664A67004E5BB
:1012C2004564047073209770F545F5460544E5447E
:1012D20070020543643B4543703C200B39F543F5EE
:1012E20044053CE53C7002053B6408453B7027F52C
:1012F20043F544F545F546F53BF53CB20BF537F5BC
:1013020038F539F53AFB7D117F11121357E4FF12BC
:1013120016F9C209C2A0E544641E4543701A300B97
:1013220017F53FF540F545F546F543F544F53BF530
:101332003CB20BAF1D1216F9D28ED007D006D005E3
:10134200D004D003D002D001D000D0D0D082D0833C
:05135200D0F0D0E032F4
:0F191000002022262A2D3033363A3D47000000B2
:0316BF00015100D6
:1017B900E4F5AD75AC4BF5BCF5BB75AF60F5AE7531
:1017C900BD8075BE0243ABC043D18043A880F5A05C
:0417D90043FB10229C
:1016F900EFD395514014AE51EED39F5017E4F5BC8A
:10170900EE90191093F5BB0E80EEE4F5BCEF90193D
:061719001093F5BB8F5197
:01171F0022A7
:0300830002193A25
:0D193A00C0E0E5D130E30353D1F7D0E03237
:10007100E4F5F2F59043FA7FF5F143F980D287D2A6
:020081009022CB
:10184200E4F5F243900143FA7FD290D2877F04FEFF
:0F185200121794C2907F047E00121794C287224F
:10189F00E4F5F243900143FA7FC287C2907F04FEC2
:0E18AF00121794D287D2907F047E0002179405
:10166700E4F528F5F243900153FA7ED2907F02FE0B
:10167700121794D2877F027E0012179430900F05BD
:1016870028E528D394FA40F412189F7F0122C287D5
:021697007F00D2
:01169900222E
:10186100C287E4F5F243900143FA7FC2907F04FE00
:0F187100121794D2877F047E00121794C2872229
:10188000C287E4F5F243900143FA7FD2907F04FED1
:0F189000121794D2877F047E00121794C287220A
:0215A7008F288B
:1015A900E4F5F243900143FA7FC287F529E528540F
:1015B90080C4131313540124FF9290E52825E0F504
:1015C900287F047E00121794D2877F047E001217A9
:1015D90094C2877F047E001217940529E529C394D4
:0315E9000840CAED
:0115EC0022DC
:0215ED008F2845
:1015EF00E4F52AF5F243900153FA7EF529C2877F7D
:1015FF00047E00121794D287E52A25E0F52A7F048E
:10160F007E00121794309002052A0529E529C3940C
:10161F000840DAE52870051218808003121861AFB0
:01162F002A90
:011630002297
:10163100E4F550F5F243900153FA7EF54FC2877FEE
:10164100057E00121794D287E55025E0F5503090C1
:101651000205507F057E00121794054FE54FC39494
:051661000840DAAF5063
:011666002261
:0716C200024C0000014E0084
:021740008F26F2
:10174200E4F527121842AF261215A71216677F0179
:101752001215ED8F4CE4FF1215ED8F4D12189FE517
:091762004C654D60020527AF271C
:01176B00225B
:10146E00E4F5257F55121740EF6003AF4B22E54C94
:10147E00B40106752501021515E54CB480067525D7
:10148E0080021515E54CB440057525408079E54C74
:10149E00B42005752520806FE54CB4100575251018
:1014AE008065E54CB40805752508805BE54CB404F1
:1014BE00057525048051E54CB4020575250280475B
:1014CE00E54CB46005752560803DE54CB43005757E
:1014DE0025308033E54CB418057525188029E54C68
:1014EE00B40C0575250C801FE54CB4060575250654
:1014FE008015E54CB42405752524800BE54C70044D
:0C150E00F5258003AF4B2285254BAF254F
:01151A0022AE
:1006590012146E8F24E52464406003020784300875
:1006690069F53DF53EC20830021C75370175380140
:10067900753901753A017B017D0B7F0A1213577F8A
:10068900881218D78037300514E4F53775380175A5
:100699003901753A017B017D057F05801DE51D75D1
:1006A900F00A84FFE51D75F00A84ADF0E4F53775AD
:1006B9003801753901753A017B0112135712146E0D
:1006C900EF64406003020BFF80F312146EEF644085
:1006D900600B12146EEF64606003020BFF300503B8
:1006E900020BFF300203020BFF12146EEF6440602D
:1006F900F812146EEF6420600812146EEF646070D3
:1007090035051DE51DC3940B4003751D0AE51D75CF
:10071900F00A84FFE51D75F00A84ADF0E4F537753C
:100729003801753901753A017B01121357300603F7
:10073900020BFF020BFAE4F53DF53E12146EEF646D
:100749004060F8D51D04751D0122121953E51D7568
:10075900F00A84FFE51D75F00A84ADF0E4F53775FC
:100769003801753901753A017B01121357300603B7
:100779000206D3AF1D1216F90206D3E524642060E0
:10078900030208A4300869F53DF53EC20830021C91
:10079900753701753801753901753A017B017D0B92
:1007A9007F0A1213577F881218D78037300514E44F
:1007B900F537753801753901753A017B017D057F7A
:1007C90005801DE51D75F00A84FFE51D75F00A8495
:1007D900ADF0E4F537753801753901753A017B01DA
:1007E90012135712146EEF64206003020BFF80F39B
:1007F90012146EEF6420601312146EEF6430600BF4
:1008090012146EEF64606003020BFF300503020BE4
:10081900FF300203020BFF12146EEF64106008121E
:10082900146EEF64307035051DE51DC3940B40034C
:10083900751D0AE51D75F00A84FFE51D75F00A842A
:10084900ADF0E4F537753801753901753A017B0169
:10085900121357300603020BFF020BFA12146EEF44
:100869006440600812146EEF64607084D51D0375CE
:100879001D01E51D75F00A84FFE51D75F00A84ADBB
:10088900F0E4F537753801753901753A017B0112C4
:100899001357300603020BFF020BFAE524641060BC
:1008A900030209C4300869F53DF53EC20830021C4F
:1008B900753701753801753901753A017B017D0B71
:1008C9007F0A1213577F881218D78037300514E42E
:1008D900F537753801753901753A017B017D057F59
:1008E90005801DE51D75F00A84FFE51D75F00A8474
:1008F900ADF0E4F537753801753901753A017B01B9
:1009090012135712146EEF64106003020BFF80F389
:1009190012146EEF6410601312146EEF6418600BFA
:1009290012146EEF64306003020BFF300503020BF3
:10093900FF300203020BFF12146EEF640860081205
:10094900146EEF64187035051DE51DC3940B400343
:10095900751D0AE51D75F00A84FFE51D75F00A8409
:10096900ADF0E4F537753801753901753A017B0148
:10097900121357300603020BFF020BFA12146EEF23
:100989006420600812146EEF64307084D51D0375FD
:100999001D01E51D75F00A84FFE51D75F00A84AD9A
:1009A900F0E4F537753801753901753A017B0112A3
:1009B9001357300603020BFF020BFAE524640860A3
:1009C90003020AE4300869F53DF53EC20830021C0D
:1009D900753701753801753901753A017B017D0B50
:1009E9007F0A1213577F881218D78037300514E40D
:1009F900F537753801753901753A017B017D057F38
:100A090005801DE51D75F00A84FFE51D75F00A8452
:100A1900ADF0E4F537753801753901753A017B0197
:100A290012135712146EEF64086003020BFF80F370
:100A390012146EEF6408601312146EEF640C600BED
:100A490012146EEF64186003020BFF300503020BEA
:100A5900FF300203020BFF12146EEF6404600812E8
:100A6900146EEF640C7035051DE51DC3940B40032E
:100A7900751D0AE51D75F00A84FFE51D75F00A84E8
:100A8900ADF0E4F537753801753901753A017B0127
:100A9900121357300603020BFF020BFA12146EEF02
:100AA9006410600812146EEF64187084D51D037504
:100AB9001D01E51D75F00A84FFE51D75F00A84AD79
:100AC900F0E4F537753801753901753A017B011282
:100AD9001357300603020BFF020BFAE52464046086
:100AE90003020BFF300869F53DF53EC20830021CD0
:100AF900753701753801753901753A017B017D0B2F
:100B09007F0A1213577F881218D78037300514E4EB
:100B1900F537753801753901753A017B017D057F16
:100B290005801DE51D75F00A84FFE51D75F00A8431
:100B3900ADF0E4F537753801753901753A017B0176
:100B490012135712146EEF64046003020BFF80F353
:100B590012146EEF6404601312146EEF6406600BD6
:100B690012146EEF640C6003020BFF300503020BD5
:100B7900FF300203020BFF12146EEF6402600812C9
:100B8900146EEF64067031051DE51DC3940B400317
:100B9900751D0AE51D75F00A84FFE51D75F00A84C7
:100BA900ADF0E4F537753801753901753A017B0106
:100BB900121357200640803912146EEF640860083A
:100BC90012146EEF640C7088D51D03751D01E51DA7
:100BD90075F00A84FFE51D75F00A84ADF0E4F53778
:100BE900753801753901753A017B011213572006D1
:060BF90005AF1D1216F904
:010BFF0022D3
:09001000E4F5F3F5A043FB0E2218
:0C194700D2A37F327E00121822C2A3221D
:0C195300D2A27F147E00121822C2A22231
:0C195F00D2A17F147E00121822C2A12227
:1017DD00759752EF54E0440A8E96F59520AF077534
:1017ED00945A00008009C2AF75945A0000D2AFE43C
:0317FD00F595223D
:1018ED00E4FFEF90172093FE74522FF8A6060FBF5A
:0218FD0014F0E5
:0118FF0022C6
:1015270002001EE493A3F8E493A34003F68001F2BC
:1015370008DFF48029E493A3F85407240CC8C333C5
:10154700C4540F4420C8834004F456800146F6DF94
:10155700E4800B010204081020408090169AE47E74
:10156700019360BCA3FF543F30E509541FFEE49389
:10157700A360010ECF54C025E060A840B8E493A350
:10158700FAE493A3F8E493A3C8C582C8CAC583CA7B
:10159700F0A3C8C582C8CAC583CADFE9DEE780BE33
:0116C9000020
:10176C00EF8DF0A4A8F0CF8CF0A428CE8DF0A42E91
:02177C00FE224B
:10177E00EB9FF5F0EA9E42F0E99D42F0EC6480C8E2
:06178E0064809845F02282
:00000001FF
